{
  "_format": "hh-sol-artifact-1",
  "contractName": "Lottery",
  "sourceName": "contracts/Lottery.sol",
  "abi": [
    {
      "anonymous": false,
      "inputs": [
        {
          "indexed": false,
          "internalType": "string",
          "name": "winners",
          "type": "string"
        }
      ],
      "name": "AnnounceWinners",
      "type": "event"
    },
    {
      "anonymous": false,
      "inputs": [
        {
          "indexed": false,
          "internalType": "enum Lottery.LotteryState",
          "name": "state",
          "type": "uint8"
        }
      ],
      "name": "LotteryStateChanged",
      "type": "event"
    },
    {
      "inputs": [
        {
          "internalType": "uint256",
          "name": "",
          "type": "uint256"
        },
        {
          "internalType": "uint256",
          "name": "",
          "type": "uint256"
        }
      ],
      "name": "bettings",
      "outputs": [
        {
          "internalType": "address payable",
          "name": "",
          "type": "address"
        }
      ],
      "stateMutability": "view",
      "type": "function"
    },
    {
      "inputs": [
        {
          "internalType": "uint256",
          "name": "_minimumFee",
          "type": "uint256"
        },
        {
          "internalType": "uint256",
          "name": "_difficulty",
          "type": "uint256"
        }
      ],
      "name": "create",
      "outputs": [],
      "stateMutability": "nonpayable",
      "type": "function"
    },
    {
      "inputs": [
        {
          "internalType": "string",
          "name": "_name",
          "type": "string"
        },
        {
          "internalType": "uint256",
          "name": "_number",
          "type": "uint256"
        }
      ],
      "name": "enter",
      "outputs": [],
      "stateMutability": "payable",
      "type": "function"
    },
    {
      "inputs": [],
      "name": "getWinner",
      "outputs": [],
      "stateMutability": "payable",
      "type": "function"
    },
    {
      "inputs": [
        {
          "internalType": "address",
          "name": "",
          "type": "address"
        }
      ],
      "name": "participantNames",
      "outputs": [
        {
          "internalType": "string",
          "name": "",
          "type": "string"
        }
      ],
      "stateMutability": "view",
      "type": "function"
    },
    {
      "inputs": [],
      "name": "prizePool",
      "outputs": [
        {
          "internalType": "uint256",
          "name": "",
          "type": "uint256"
        }
      ],
      "stateMutability": "view",
      "type": "function"
    },
    {
      "inputs": [],
      "name": "state",
      "outputs": [
        {
          "internalType": "enum Lottery.LotteryState",
          "name": "",
          "type": "uint8"
        }
      ],
      "stateMutability": "view",
      "type": "function"
    }
  ],
  "bytecode": "0x60806040526000805460ff1916600290811782556001919091556064905534801561002957600080fd5b50610aa9806100396000396000f3fe6080604052600436106100705760003560e01c80637d3acbb51161004e5780637d3acbb5146100db5780638e7ea5b2146101135780639f7b45791461011b578063c19d93fb1461013b57600080fd5b806307400f091461007557806367dee2711461008a578063719ce73e146100c0575b600080fd5b6100886100833660046107ab565b610162565b005b34801561009657600080fd5b506100aa6100a536600461077d565b6102d9565b6040516100b79190610978565b60405180910390f35b3480156100cc57600080fd5b506040514781526020016100b7565b3480156100e757600080fd5b506100fb6100f636600461085d565b610373565b6040516001600160a01b0390911681526020016100b7565b6100886103ab565b34801561012757600080fd5b5061008861013636600461085d565b61062a565b34801561014757600080fd5b506000546101559060ff1681565b6040516100b79190610950565b6000805460ff16600281111561018857634e487b7160e01b600052602160045260246000fd5b146101d05760405162461bcd60e51b8152602060048201526013602482015272131bdd1d195c9e481b9bdd081cdd185c9d1959606a1b60448201526064015b60405180910390fd5b6002548111156102185760405162461bcd60e51b81526020600482015260136024820152724e756d626572206e6f7420696e2072616e676560681b60448201526064016101c7565b60015434106102575760405162461bcd60e51b815260206004820152600b60248201526a46656520746f6f206c6f7760a81b60448201526064016101c7565b60038054600181019091557fc2575a0e9e593c00f959f8c92f12db2869c3395a3b0502d05e2516446f71f85b0181905533600090815260056020908152604090912083516102a7928501906106e4565b5060009081526004602090815260408220805460018101825590835291200180546001600160a01b0319163317905550565b600560205260009081526040902080546102f2906109fb565b80601f016020809104026020016040519081016040528092919081815260200182805461031e906109fb565b801561036b5780601f106103405761010080835404028352916020019161036b565b820191906000526020600020905b81548152906001019060200180831161034e57829003601f168201915b505050505081565b6004602052816000526040600020818154811061038f57600080fd5b6000918252602090912001546001600160a01b03169150829050565b6000805460ff1660028111156103d157634e487b7160e01b600052602160045260246000fd5b146104135760405162461bcd60e51b81526020600482015260126024820152714c6f7474657279206e6f742061637469766560701b60448201526064016101c7565b6000805460ff191660019081179091556040517f1e046fdd2110d82ed3fa7652b41ced17c49cbb9ee4536e65f51ad2a6ed5359a79161045191610950565b60405180910390a16040805160208082018352600080835260048082528083527f1a1e6821cde7d0159c0d293177871e09677b4e42307c7db3ba94f8648a5a050f8054865181860281018601909752808752949591949293919290918301828280156104e657602002820191906000526020600020905b81546001600160a01b031681526001909101906020018083116104c8575b5050505050905060008151476104fc91906109ab565b905060005b82518110156105ec576005600084838151811061052e57634e487b7160e01b600052603260045260246000fd5b60200260200101516001600160a01b03166001600160a01b031681526020019081526020016000208560405160200161056892919061089a565b604051602081830303815290604052945082818151811061059957634e487b7160e01b600052603260045260246000fd5b60200260200101516001600160a01b03166108fc839081150290604051600060405180830381858888f193505050501580156105d9573d6000803e3d6000fd5b50806105e481610a36565b915050610501565b507f2b6724a11dd63fc4e575088e2859c8223bb5eb25887a5e4c804706999a200c5c8460405161061c9190610978565b60405180910390a150505050565b600260005460ff16600281111561065157634e487b7160e01b600052602160045260246000fd5b146106965760405162461bcd60e51b81526020600482015260156024820152744c6f7474657279207374696c6c2072756e6e696e6760581b60448201526064016101c7565b600182905560028190556000805460ff191681556040517f1e046fdd2110d82ed3fa7652b41ced17c49cbb9ee4536e65f51ad2a6ed5359a7916106d891610950565b60405180910390a15050565b8280546106f0906109fb565b90600052602060002090601f0160209004810192826107125760008555610758565b82601f1061072b57805160ff1916838001178555610758565b82800160010185558215610758579182015b8281111561075857825182559160200191906001019061073d565b50610764929150610768565b5090565b5b808211156107645760008155600101610769565b60006020828403121561078e578081fd5b81356001600160a01b03811681146107a4578182fd5b9392505050565b600080604083850312156107bd578081fd5b823567ffffffffffffffff808211156107d4578283fd5b818501915085601f8301126107e7578283fd5b8135818111156107f9576107f9610a5d565b604051601f8201601f19908116603f0116810190838211818310171561082157610821610a5d565b81604052828152886020848701011115610839578586fd5b82602086016020830137918201602090810195909552509694909201359450505050565b6000806040838503121561086f578182fd5b50508035926020909101359150565b600081516108908185602086016109cb565b9290920192915050565b600080845482600182811c9150808316806108b657607f831692505b60208084108214156108d657634e487b7160e01b87526022600452602487fd5b8180156108ea57600181146108fb57610927565b60ff19861689528489019650610927565b60008b815260209020885b8681101561091f5781548b820152908501908301610906565b505084890196505b50505050505061094761094182600b60fa1b815260010190565b8561087e565b95945050505050565b602081016003831061097257634e487b7160e01b600052602160045260246000fd5b91905290565b60208152600082518060208401526109978160408501602087016109cb565b601f01601f19169190910160400192915050565b6000826109c657634e487b7160e01b81526012600452602481fd5b500490565b60005b838110156109e65781810151838201526020016109ce565b838111156109f5576000848401525b50505050565b600181811c90821680610a0f57607f821691505b60208210811415610a3057634e487b7160e01b600052602260045260246000fd5b50919050565b6000600019821415610a5657634e487b7160e01b81526011600452602481fd5b5060010190565b634e487b7160e01b600052604160045260246000fdfea26469706673582212203b6228df706a722cd70afed11f715f6184f2e80dc476d7915d93e267a63dabbe64736f6c63430008040033",
  "linkReferences": {},
  "deployedLinkReferences": {}
}